:100000000C9434000C9446000C9446000C9446006A
:100010000C9446000C9446000C9446000C94460048
:100020000C9446000C9446000C9446000C94480036
:100030000C9446000C9446000C9446000C94460028
:100040000C9446000C9446000C9446000C94460018
:100050000C9446000C9446000C9446000C94460008
:100060000C9446000C94460011241FBECFEFD8E03C
:10007000DEBFCDBF21E0A0E0B1E001C01D92A23003
:10008000B207E1F70E9491000C949D000C940000CF
:100090001F920F920FB60F9211248F939F9380910E
:1000A000000190910101019790930101809300015B
:1000B0008091000190910101892B79F488EE93E001
:1000C00090930101809300012D9B04C085B18F7D29
:1000D00085B903C085B1806285B99F918F910F90DA
:1000E0000FBE0F901F90189580E284B985B1806291
:1000F00085B9089580ED97E09093890080938800FA
:1001000010928000E1E8F0E01082109285001092D9
:10011000840086B386BB82E080936F008AE0808390
:10012000089588EE93E090930101809300010E946E
:0E01300074000E947A007894FFCFF894FFCFFD
:00000001FF
